:100000000C942A000C9434000C9434000C943400AA
:100010000C9434000C9434000C9434000C94340090
:100020000C9434000C9434000C9434000C94340080
:100030000C9434000C9434000C9434000C94340070
:100040000C9434000C9434000C9434000C94340060
:100050000C94340011241FBECFE5D8E0DEBFCDBF25
:100060000E9436000C944A000C9400008FEF84BB71
:1000700085BB2FE33DE093E0215030409040E1F715
:1000800000C0000015BAEFE4F3EC3197F1F700C0BF
:080090000000EECFF894FFCF51
:00000001FF
